:100000000C9410010C942D010C942D010C942D01D5
:100010000C942D010C942D010C942D010C942D01A8
:100020000C942D010C9446010C942D010C942D017F
:100030000C942D010C942D010C942D010C942D0188
:100040000C942D010C942D010C942D010C942D0178
:100050000C942D01000000000000002F000000079C
:10006000000700147F147F14242A7F2A12C4C810AA
:10007000264636495522500005030000001C224147
:10008000000041221C0014083E081408083E08081D
:1000900000005030001010101010006060000020B0
:1000A000100804023E5149453E00427F4000426133
:1000B0005149462141454B311814127F10274545BF
:1000C00045393C4A494930017109050336494949D6
:1000D00036064949291E0036360000005636000013
:1000E00008142241001414141414004122140802AC
:1000F00001510906324959513E7E1111117E7F4945
:100100004949363E414141227F4141221C7F4949B4
:1001100049417F090909013E4149497A7F08080898
:100120007F00417F4100204041FF017F08142241B0
:100130007F404040407F020C027F7F0408107F3EDA
:100140004141413E7F090909063E4151215E7F0937
:10015000192946464949493101017F01013F404083
:10016000403F1F2040201F3F4038403F6314081489
:100170006307087008076151494543007F4141000A
:10018000552A552A550041417F00040201020440CE
:1001900040404040000102040020545454787F48FD
:1001A0004444383844444420384444487F38545404
:1001B0005418087E0901020C5252523E7F08040472
:1001C0007800447D40002040443D007F10284400DA
:1001D00000417F40007C041804787C0804047838CF
:1001E000444444387C14141408081414187C7C0803
:1001F0000404084854545420043F4440203C4040E8
:10020000207C1C2040201C3C4030403C44281028CE
:10021000440C5050503C4464544C440006090906B8
:1002200011241FBECFE5D4E0DEBFCDBF10E0A0E6B5
:10023000B0E0E2EEF3E002C005900D92A437B10702
:10024000D9F710E0A4E7B0E001C01D92AC37B107C8
:10025000E1F70E94D8010C94EF010C94000083B7E1
:10026000816083BF89B7816089BF089581B387604A
:1002700081BB0895929A92980895919A83E0982F5D
:100280009A95F1F791988A95F1F708951F920F9238
:100290000FB60F9211242F933F934F935F936F9359
:1002A0007F938F939F93AF93BF93EF93FF9390911F
:1002B00077009F5F909377003091740030937900BE
:1002C0002091780020937A00809173009817B9F4F8
:1002D00010927700822F8F5F80937800853009F02D
:1002E00056C010927800932F9F5F90937400809176
:1002F0007B00981709F04BC01092740048C041E091
:1003000050E00090760002C0440F551F0A94E2F7B7
:1003100070917B0060E0A5E024C0253011F480E0FE
:100320000DC0E32FF0E0E05AFF4FE081EA9FF001BB
:100330001124E20FF11DEC54F040849190E08423ED
:100340009523892B11F0909A01C09098929A9298D7
:100350002F5F263029F43F5F371708F030E020E0A8
:100360006F5F6E31D0F23093790020937A00609302
:100370007500842F809585BB0E943D018091760099
:100380008F5F80937600873011F410927600FF9192
:10039000EF91BF91AF919F918F917F916F915F91FD
:1003A0004F913F912F910F900FBE0F901F90189576
:1003B0008FEF84BB83B7816083BF89B7816089BFBA
:1003C00081B3876081BBE0E6F0E001900020E9F7AF
:1003D0003197E056F040E0937B007894FFCFF8949B
:0203E000FFCF4D
:1003E20020202A48656C6C6F20776F726C642A201B
:0403F2002020006463
:00000001FF
